{
  "_format": "hh-sol-artifact-1",
  "contractName": "WavePortal",
  "sourceName": "contracts/WavePortal.sol",
  "abi": [
    {
      "inputs": [],
      "stateMutability": "nonpayable",
      "type": "constructor"
    },
    {
      "inputs": [],
      "name": "getTotalWaves",
      "outputs": [
        {
          "internalType": "uint256",
          "name": "",
          "type": "uint256"
        }
      ],
      "stateMutability": "view",
      "type": "function"
    },
    {
      "inputs": [],
      "name": "wave",
      "outputs": [],
      "stateMutability": "nonpayable",
      "type": "function"
    },
    {
      "inputs": [],
      "name": "waveBlacklistChecked",
      "outputs": [],
      "stateMutability": "nonpayable",
      "type": "function"
    }
  ],
  "bytecode": "0x608060405234801561001057600080fd5b5061003c6040518060600160405280602c8152602001610843602c913961004160201b61022b1760201c565b6101c4565b6100dd816040516024016100559190610142565b6040516020818303038152906040527f41304fac000000000000000000000000000000000000000000000000000000007bffffffffffffffffffffffffffffffffffffffffffffffffffffffff19166020820180517bffffffffffffffffffffffffffffffffffffffffffffffffffffffff83818316178352505050506100e060201b60201c565b50565b60008151905060006a636f6e736f6c652e6c6f679050602083016000808483855afa5050505050565b600061011482610164565b61011e818561016f565b935061012e818560208601610180565b610137816101b3565b840191505092915050565b6000602082019050818103600083015261015c8184610109565b905092915050565b600081519050919050565b600082825260208201905092915050565b60005b8381101561019e578082015181840152602081019050610183565b838111156101ad576000848401525b50505050565b6000601f19601f8301169050919050565b610670806101d36000396000f3fe608060405234801561001057600080fd5b50600436106100415760003560e01c80636fe15b44146100465780637cc50dcb146100505780639a2cdc081461005a575b600080fd5b61004e610078565b005b6100586100d2565b005b6100626101e0565b60405161006f91906104fe565b60405180910390f35b600160008082825461008a9190610535565b925050819055506100d06040518060400160405280600a81526020017f2573207761697665642100000000000000000000000000000000000000000000815250336102c4565b565b3373ffffffffffffffffffffffffffffffffffffffff1673626fef8f46a51600a629a6bf1705ae2d5232297c73ffffffffffffffffffffffffffffffffffffffff16141561011f57600080fd5b60018060008282546101319190610535565b92505081905550600180541015610185576101806040518060400160405280601181526020017f57617665206e6f7420616363657074656400000000000000000000000000000081525061022b565b6101de565b60016000808282546101979190610535565b925050819055506101dd6040518060400160405280600a81526020017f2573207761697665642100000000000000000000000000000000000000000000815250336102c4565b5b565b60006102236040518060400160405280601681526020017f5765206861766520256420746f74616c20776176657300000000000000000000815250600054610360565b600054905090565b6102c18160405160240161023f919061047c565b6040516020818303038152906040527f41304fac000000000000000000000000000000000000000000000000000000007bffffffffffffffffffffffffffffffffffffffffffffffffffffffff19166020820180517bffffffffffffffffffffffffffffffffffffffffffffffffffffffff83818316178352505050506103fc565b50565b61035c82826040516024016102da92919061049e565b6040516020818303038152906040527f319af333000000000000000000000000000000000000000000000000000000007bffffffffffffffffffffffffffffffffffffffffffffffffffffffff19166020820180517bffffffffffffffffffffffffffffffffffffffffffffffffffffffff83818316178352505050506103fc565b5050565b6103f882826040516024016103769291906104ce565b6040516020818303038152906040527f9710a9d0000000000000000000000000000000000000000000000000000000007bffffffffffffffffffffffffffffffffffffffffffffffffffffffff19166020820180517bffffffffffffffffffffffffffffffffffffffffffffffffffffffff83818316178352505050506103fc565b5050565b60008151905060006a636f6e736f6c652e6c6f679050602083016000808483855afa5050505050565b61042e8161058b565b82525050565b600061043f82610519565b6104498185610524565b93506104598185602086016105c7565b61046281610629565b840191505092915050565b610476816105bd565b82525050565b600060208201905081810360008301526104968184610434565b905092915050565b600060408201905081810360008301526104b88185610434565b90506104c76020830184610425565b9392505050565b600060408201905081810360008301526104e88185610434565b90506104f7602083018461046d565b9392505050565b6000602082019050610513600083018461046d565b92915050565b600081519050919050565b600082825260208201905092915050565b6000610540826105bd565b915061054b836105bd565b9250827fffffffffffffffffffffffffffffffffffffffffffffffffffffffffffffffff038211156105805761057f6105fa565b5b828201905092915050565b60006105968261059d565b9050919050565b600073ffffffffffffffffffffffffffffffffffffffff82169050919050565b6000819050919050565b60005b838110156105e55780820151818401526020810190506105ca565b838111156105f4576000848401525b50505050565b7f4e487b7100000000000000000000000000000000000000000000000000000000600052601160045260246000fd5b6000601f19601f830116905091905056fea26469706673582212207785f73fa958f57a0ef0b303b85b6c6625f3e3b28d8bca7800a4cc2e3fdef5b164736f6c634300080400334465706c6f79696e6720696e20352c20342c20332c20322c20312e2e2e20476f20666f72204c61756e636821",
  "linkReferences": {},
  "deployedLinkReferences": {}
}